S00F00004C4544546573742E73726563A0
S113000013C02DC02CC02BC02AC029C028C027C0B3
S113001026C025C024C023C022C021C020C01FC0C8
S11300201EC01DC01CC01BC011241FBECFEFD1E0D9
S1130030DEBFCDBF11E0A0E0B1E0E8EBF0E002C02C
S113004005900D92A430B107D9F711E0A4E0B1E016
S113005001C01D92A530B107E1F71FD02BC0D0CF4E
S113006087B1886287B981E58CBD08958EBD0DB4D2
S113007007FEFDCF08955E9A0895F2DF5F9A089512
S11300808FE08EB98FEF85B988B987B1876087B95A
S11300908AB1826C8AB9EFDF0895C0E0D1E0809123
S11300A004018F3F19F4CE01E8DFF9CF8F5F80930D
S10B00B00401F5CFF894FFCF21
S10700B8010101013C
S9030000FC
