:1000000013C022C021C020C01FC01EC01DC01CC004
:100010001BC01AC019C018C017C016C015C014C024
:1000200013C012C011C010C011241FBECFEFD1E009
:10003000DEBFCDBF11E0A0E0B1E001C01D92A43051
:10004000B107E1F7D3D34BC4DBCFDF93CF93CDB769
:10005000DEB788E365E148E713D388E367E140EC66
:100060000FD388E368E141E00BD388E36BE24CE116
:1000700007D388E36CE248E003D388E36DE244E809
:10008000FFD2CF91DF910895DF93CF93CDB7DEB745
:1000900088E36AE241E4F4D28AE36AE241E4F0D21E
:1000A000CF91DF910895DF93CF9300D000D0CDB7EB
:1000B000DEB79E012F5F3F4F88E390E063E070E082
:1000C000A901BDD29E012D5F3F4F8AE390E063E01E
:1000D00070E0A901B4D229813A818B819C81820F81
:1000E000931F959587959595879595958795959562
:1000F00087950F900F900F900F90CF91DF910895FB
:10010000DF93CF9300D000D0CDB7DEB79E012F5F35
:100110003F4F88E390E063E070E0A90190D29E0138
:100120002D5F3F4F8AE390E063E070E0A90187D242
:1001300029813A818B819C81A901481B590BCA01F5
:100140009595879595958795959587959595879597
:100150000F900F900F900F90CF91DF910895DF9344
:10016000CF9300D0CDB7DEB79E012F5F3F4F88E31E
:1001700090E063E070E0A90162D289819A8195954F
:1001800087959595879595958795959587950F90E2
:100190000F90CF91DF910895DF93CF93CDB7DEB766
:1001A00088E36AE240E46CD28AE36AE240E468D21F
:1001B000CF91DF910895DF93CF93CDB7DEB784E27F
:1001C00090E024E230E0F90120812C62FC012083E0
:1001D0008AE290E02AE230E0F9012081206CFC0103
:1001E00020838CE490E02CE430E0F901208120654C
:1001F000FC0120838BE290E02BE230E0F9012081CA
:100200002068FC01208380E091E023D0CF91DF9132
:100210000895DF93CF93CDB7DEB785E290E025E276
:1002200030E0F90120812460FC012083CF91DF912F
:100230000895DF93CF93CDB7DEB785E290E025E256
:1002400030E0F90120812B7FFC012083CF91DF91E9
:100250000895DF93CF9300D0CDB7DEB79A8389831B
:100260008EE490E029813A81F9012081FC0120830C
:1002700000008DE490E0FC0180818823D4F78EE4B7
:1002800090E029813A812F5F3F4FF9012081FC01E5
:10029000208300008DE490E0FC0180818823D4F766
:1002A0008EE490E029813A812E5F3F4FF901208151
:1002B000FC01208300008DE490E0FC018081882314
:1002C000D4F78EE490E029813A812D5F3F4FF90108
:1002D0002081FC01208300008DE490E0FC018081FE
:1002E0008823D4F78BE290E02BE230E0F901208103
:1002F0002068FC0120838BE290E02BE230E0F901E2
:1003000020812F77FC0120830F900F90CF91DF91F8
:100310000895DF93CF93CDB7DEB727970FB6F89444
:10032000DEBF0FBECDBF1B8235C08B81282F332788
:1003300027FD309581E090E002C0880F991F2A9533
:10034000E2F78C838B81992787FD909527E030E039
:10035000281B390B81E090E002C0880F991F2A9575
:10036000E2F78D838C818E838D818F83CE010496FD
:1003700070DF1A82198205C089819A8101969A8359
:10038000898389819A8127E280319207ACF38B813E
:100390008F5F8B838B81883044F2C5CFDF93CF93FF
:1003A000CDB7DEB78CEB90E024EAFC01208300009F
:1003B0008CEB90E0FC0180818823D4F789EB90E0FE
:1003C000FC018081882F90E0887F907088309105B3
:1003D00029F089EB90E0FC01808169D1CF91DF9118
:1003E0000895DF93CF93CDB7DEB78CEB90E024EA8E
:1003F000FC01208300008CEB90E0FC0180818823CD
:10040000D4F789EB90E0FC018081882F90E0887F11
:1004100090708031910529F089EB90E0FC0180819A
:1004200046D1CF91DF910895DF93CF930F92CDB74F
:10043000DEB789838BEB90E02981FC0120838CEB74
:1004400090E024E8FC01208300008CEB90E0FC01AC
:1004500080818823D4F789EB90E0FC018081882F8C
:1004600090E0887F90708831910529F089EB90E0C9
:10047000FC0180811CD10F90CF91DF910895DF9313
:10048000CF930F92CDB7DEB789838BEB90E02981B4
:100490002160FC0120838CEB90E024E8FC012083A8
:1004A00000008CEB90E0FC0180818823D4F789EB7D
:1004B00090E0FC018081882F90E0887F90708034EC
:1004C000910529F089EB90E0FC018081F0D00F903C
:1004D000CF91DF910895DF93CF930F92CDB7DEB721
:1004E00089838BEB90E02981FC0120838CEB90E0E9
:1004F00024E8FC01208300008CEB90E0FC0180816B
:100500008823D4F789EB90E0FC018081882F90E06C
:10051000887F90708832910529F089EB90E0FC018A
:100520008081C5D00F90CF91DF910895DF93CF9355
:1005300000D0CDB7DEB79A8389838CEB90E024ECB2
:10054000FC01208300008CEB90E0FC01808188237B
:10055000D4F789EB90E0FC018081882F90E0887FC0
:1005600090708035910529F089EB90E0FC01808145
:100570009ED08BEB90E0FC01208189819A81FC0167
:1005800020830F900F90CF91DF910895DF93CF9349
:1005900000D0CDB7DEB79A8389838CEB90E024E856
:1005A000FC01208300008CEB90E0FC01808188231B
:1005B000D4F789EB90E0FC018081882F90E0887F60
:1005C00090708835910529F089EB90E0FC018081DD
:1005D0006ED08BEB90E0FC01208189819A81FC0137
:1005E00020830F900F90CF91DF910895DF93CF93E9
:1005F000CDB7DEB78CEB90E024E9FC012083CF91EE
:10060000DF910895DF93CF9300D000D0CDB7DEB750
:1006100089836A835C834B83C1DE898105DF8A819C
:100620005ADFDFDE89812BDF8B819C81AFDFDEDF4C
:100630000F900F900F900F90CF91DF910895DF935F
:10064000CF9300D000D0CDB7DEB789836A835C83B7
:100650004B83A4DE8981E8DE8A813DDFC2DE8981A9
:100660000EDF8B819C81019661DF8B819C818EDF07
:10067000BDDF0F900F900F900F90CF91DF910895F5
:10068000DF93CF9300D00F92CDB7DEB789836A8313
:100690004B8384DE8981C8DE8A811DDF8B811BDF6D
:1006A000A5DF0F900F900F90CF91DF910895DF930A
:1006B000CF9300D000D00F92CDB7DEB78D831982D3
:1006C0008D818A831B828D818C83CE010196C1DD51
:1006D000FFCFDF93CF9300D000D00F92CDB7DEB71E
:1006E0008D838D8189831A828D818B831C82CE01BB
:1006F0000196AFDD0F900F900F900F900F90CF915C
:10070000DF910895DF93CF93CDB7DEB761970FB632
:10071000F894DEBF0FBECDBF998B888B80E090E848
:100720009A8389831C821B8288899989CC01A0E0E5
:10073000B0E0880F991FAA1FBB1F880F991FAA1F1F
:10074000BB1F880F991FAA1FBB1F880F991FAA1FC5
:10075000BB1F8E839F83A887B9871D8239C02B81D9
:100760003C8189819A81822B932B9B878A878A85FA
:100770009B85CC01A0E0B0E02A853B85990140E053
:1007800050E0BC01CD0192D0DC01CB018C879D876C
:10079000AE87BF872C853D854E855F858E819F8185
:1007A000A885B98582179307A407B50740F02B8168
:1007B0003C8189819A81822B932B9C838B838981B5
:1007C0009A81969587959A8389838D818F5F8D8392
:1007D0008D81803120F28B819C8161960FB6F894D7
:1007E000DEBF0FBECDBFCF91DF910895DF93CF93D2
:1007F000CDB7DEB72A970FB6F894DEBF0FBECDBFD8
:1008000081E0898381E08C83D6DC1FDC3DDC01DD67
:1008100081E090E00D8002C0880F991F0A94E2F7F2
:100820008F838D819E81292F332727FD3A9581E083
:1008300090E002C0880F991F2A95E2F789871886F1
:100840008EDC9E838D838D819E81892F990F990BDC
:100850008530910524F0EDDC8FEF8A8701C01A8680
:10086000CE010796F6DCE5DC898188230CF41C8236
:100870008981813011F481E08C838C81882321F07F
:100880008981880F898303C08981869589831B822A
:100890001A8205C08A819B8101969B838A838A8103
:1008A0009B8123E0883E9207A8F3B2CFFF27EE2773
:1008B000BB27AA2760FF04C0A20FB31FE41FF51FC8
:1008C000220F331F441F551F96958795779567957F
:1008D00089F70097760771F7CF01BD010895F89465
:0208E000FFCF48
:00000001FF
