S00C0000796F796F2E7372656348
S113000013C02DC02CC02BC02AC029C028C027C0B3
S113001026C025C024C023C022C021C020C01FC0C8
S11300201EC01DC01CC01BC011241FBECFEFD1E0D9
S1130030DEBFCDBF11E0A0E0B1E0E8E9F8E002C026
S113004005900D92AE30B107D9F711E0AEE0B1E002
S113005001C01D92A231B107E1F796D31BC4D0CFE2
S1130060DF93CF930F92CDB7DEB78AE390E06BE2D4
S113007070E040E450E00AD388E390E06BE270E083
S113008040E450E003D301C000008AE36BE29E0128
S11300902F5F3F4FA901BCD28981882F90E08074E3
S11300A09070009789F7000001C0000088E36BE2BC
S11300B09E012F5F3F4FA901ABD28981882F90E029
S11300C080749070009789F78AE390E065E170E0AE
S11300D048EF50E0DBD28AE390E067E170E040EC67
S11300E050E0D4D28AE390E068E170E041E050E06F
S11300F0CDD28AE390E06BE270E048E150E0C6D2F2
S11301008AE390E06CE270E048E050E0BFD28AE31A
S113011090E06DE270E044E050E0B8D28AE390E011
S11301206EE270E044E050E0B1D28AE390E06EE029
S113013070E042E050E0AAD20F90CF91DF91089591
S1130140DF93CF93CDB7DEB78AE390E06AE270E045
S113015040E050E09BD288E390E06AE270E040E047
S113016050E094D288E390E06EE070E042E050E02A
S11301708DD28AE390E06AE270E041E050E086D2FA
S113018088E390E06AE270E041E050E07FD2CF91F2
S1130190DF910895DF93CF930F92CDB7DEB78AE353
S11301A090E06AE270E040E050E070D28AE366E1F9
S11301B09E012F5F3F4FA9012BD28AE390E06AE2B0
S11301C070E049E250E062D20F90CF91DF91089540
S11301D0DF93CF9300D000D0CDB7DEB79E012F5F61
S11301E03F4F8AE390E063E070E0A9012ED29E01C4
S11301F02D5F3F4F88E390E063E070E0A90125D2D2
S113020089819A819C013595279535952795359552
S1130210279535952795359527958B819C819595BF
S113022087959595879595958795959587959595B2
S11302308795820F931F0F900F900F900F90CF917F
S1130240DF910895DF93CF93CDB7DEB784E290E0DA
S113025024E230E0F90120812C62FC0120838AE24F
S113026090E02AE230E0F9012081206CFC01208337
S113027087E290E027E230E0F90120812160FC016F
S1130280208388E290E028E230E0F90120812160B7
S1130290FC0120838CE490E02CE430E0F90120811F
S11302A02065FC0120838DE490E02DE430E0F90129
S11302B020812160FC0120838BE290E02BE230E07E
S11302C0F90120812068FC01208385E290E025E289
S11302D030E0F90120812B7FFC0120838EE091E046
S11302E003D0CF91DF910895DF93CF9300D0CDB7A2
S11302F0DEB79A8389838EE490E029813A81F901FB
S11303002081FC01208300008DE490E0FC018081C9
S11303108823D4F78EE490E029813A812F5F3F4F00
S1130320F9012081FC01208300008DE490E0FC01B0
S113033080818823D4F78EE490E029813A812E5F6E
S11303403F4FF9012081FC01208300008DE490E0FF
S1130350FC0180818823D4F78EE490E029813A81DE
S11303602D5F3F4FF9012081FC01208300008DE4C3
S113037090E0FC0180818823D4F78BE290E02BE2AB
S113038030E0F90120812068FC0120838BE290E0B9
S11303902BE230E0F90120812F77FC0120830F90BC
S11303A00F90CF91DF910895DF93CF93CDB7DEB750
S11303B08CEB90E024EAFC01208300008CEB90E0BD
S11303C0FC0180818823D4F789EB90E0FC018081D3
S11303D0882F90E0887F90708830910529F089EB10
S11303E090E0FC01808169D1CF91DF910895DF9382
S11303F0CF93CDB7DEB78CEB90E024EAFC012083E9
S113040000008CEB90E0FC0180818823D4F789EB19
S113041090E0FC018081882F90E0887F907080318B
S1130420910529F089EB90E0FC01808146D1CF91C0
S1130430DF910895DF93CF930F92CDB7DEB7898311
S11304408BEB90E02981FC0120838CEB90E024E885
S1130450FC01208300008CEB90E0FC018081882368
S1130460D4F789EB90E0FC018081882F90E0887FAD
S113047090708831910529F089EB90E0FC0180812E
S11304801CD10F90CF91DF910895DF93CF930F92FA
S1130490CDB7DEB789838BEB90E029812160FC0125
S11304A020838CEB90E024E8FC01208300008CEB9B
S11304B090E0FC0180818823D4F789EB90E0FC0173
S11304C08081882F90E0887F90708034910529F096
S11304D089EB90E0FC018081F0D00F90CF91DF9107
S11304E00895DF93CF930F92CDB7DEB789838BEB5B
S11304F090E02981FC0120838CEB90E024E8FC014E
S1130500208300008CEB90E0FC0180818823D4F7E9
S113051089EB90E0FC018081882F90E0887F9070C7
S11305208832910529F089EB90E0FC018081C5D0E7
S11305300F90CF91DF910895DF93CF9300D0CDB783
S1130540DEB79A8389838CEB90E024ECFC01208352
S113055000008CEB90E0FC0180818823D4F789EBC8
S113056090E0FC018081882F90E0887F9070803536
S1130570910529F089EB90E0FC0180819ED08BEB02
S113058090E0FC01208189819A81FC0120830F90F5
S11305900F90CF91DF910895DF93CF9300D0CDB723
S11305A0DEB79A8389838CEB90E024E8FC012083F6
S11305B000008CEB90E0FC0180818823D4F789EB68
S11305C090E0FC018081882F90E0887F90708835CE
S11305D0910529F089EB90E0FC0180816ED08BEBD2
S11305E090E0FC01208189819A81FC0120830F9095
S11305F00F90CF91DF910895DF93CF93CDB7DEB7FE
S11306008CEB90E024E9FC012083CF91DF910895E5
S1130610DF93CF9300D000D0CDB7DEB789836A8350
S11306205C834B83C1DE898105DF8A815ADFDFDE8B
S113063089812BDF8B819C81AFDFDEDF0F900F90F0
S11306400F900F90CF91DF910895DF93CF9300D057
S113065000D0CDB7DEB789836A835C834B83A4DE85
S11306608981E8DE8A813DDFC2DE89810EDF8B81EC
S11306709C81019661DF8B819C818EDFBDDF0F90B1
S11306800F900F900F90CF91DF910895DF93CF9348
S113069000D00F92CDB7DEB789836A834B8384DEA3
S11306A08981C8DE8A811DDF8B811BDFA5DF0F9066
S11306B00F900F90CF91DF910895DF93CF9300D0E7
S11306C000D00F92CDB7DEB78D8319828D818A83D6
S11306D01B828D818C83CE01019606DEFFCFDF93D2
S11306E0CF9300D000D00F92CDB7DEB78D838D812C
S11306F089831A828D818B831C82CE010196F4DD5D
S11307000F900F900F900F900F90CF91DF9108955D
S1130710DF93CF93CDB7DEB785E290E025E230E0FA
S1130720F90120812B7FFC012083CF91DF91089573
S1130730DF93CF93CDB7DEB785E290E025E230E0DA
S1130740F90120812460FC012083CF91DF91089579
S1130750DF93CF93CDB7DEB783E590E023E530E0B8
S1130760F90120812560FC0120838895000089E23D
S113077090E0FC018081882F90E084709070009755
S1130780B1F7CF91DF910895DF93CF93CDB7DEB763
S113079066970FB6F894DEBF0FBECDBFCE010596A7
S11307A020E031E04EE0F90100802F5F3F4FFC0173
S11307B00082019641504423B1F78EE08A838A81F6
S11307C0898340DD4DDC01C0000058D08981882F29
S11307D090E09E012B5F3F4F820F931FFC018081AD
S11307E08B8B8981882F90E09E012B5F3F4F820F76
S11307F0931FFC0180818D8B8981882F90E09E015D
S11308002B5F3F4F820F931FFC0180818C8B89816A
S1130810882F90E09E012B5F3F4F820F931FFC01B6
S113082080818E8B8981882351F4D2DC9C838B83D5
S11308308B819C81823391053CF28A818983CE012C
S1130840439652DD898181508983C0CFDF93CF9352
S113085000D0CDB7DEB71A82198205C089819A818A
S113086001969A83898389819A8123E0883E92073D
S1130870A8F30F900F90CF91DF910895DF93CF935A
S1130880CDB7DEB787DC54DF63DF42DF59DCCF91BD
S10B0890DF910895F894FFCFF5
S11108980102040810204080402010080402D1
S9030000FC
